{
  "contractName": "Roulette",
  "abi": [
    {
      "inputs": [],
      "stateMutability": "nonpayable",
      "type": "constructor"
    },
    {
      "inputs": [
        {
          "internalType": "uint256",
          "name": "",
          "type": "uint256"
        }
      ],
      "name": "winners",
      "outputs": [
        {
          "internalType": "address",
          "name": "",
          "type": "address"
        }
      ],
      "stateMutability": "view",
      "type": "function",
      "constant": true
    },
    {
      "inputs": [
        {
          "internalType": "address payable",
          "name": "_to",
          "type": "address"
        }
      ],
      "name": "withdraw",
      "outputs": [],
      "stateMutability": "payable",
      "type": "function",
      "payable": true
    },
    {
      "inputs": [
        {
          "internalType": "uint256",
          "name": "i",
          "type": "uint256"
        }
      ],
      "name": "bet",
      "outputs": [
        {
          "internalType": "uint256",
          "name": "",
          "type": "uint256"
        }
      ],
      "stateMutability": "payable",
      "type": "function",
      "payable": true
    },
    {
      "inputs": [],
      "name": "getGamesLen",
      "outputs": [
        {
          "internalType": "uint256",
          "name": "",
          "type": "uint256"
        }
      ],
      "stateMutability": "view",
      "type": "function",
      "constant": true
    },
    {
      "inputs": [],
      "name": "getCurrentGamePot",
      "outputs": [
        {
          "internalType": "uint256",
          "name": "",
          "type": "uint256"
        }
      ],
      "stateMutability": "view",
      "type": "function",
      "constant": true
    },
    {
      "inputs": [
        {
          "internalType": "uint256",
          "name": "i",
          "type": "uint256"
        }
      ],
      "name": "getWinner",
      "outputs": [
        {
          "internalType": "address",
          "name": "",
          "type": "address"
        }
      ],
      "stateMutability": "view",
      "type": "function",
      "constant": true
    },
    {
      "inputs": [],
      "name": "getHistory",
      "outputs": [
        {
          "internalType": "address[]",
          "name": "",
          "type": "address[]"
        }
      ],
      "stateMutability": "view",
      "type": "function",
      "constant": true
    },
    {
      "inputs": [],
      "name": "getCurrentGameBetters",
      "outputs": [
        {
          "internalType": "address[]",
          "name": "",
          "type": "address[]"
        },
        {
          "internalType": "uint256[]",
          "name": "",
          "type": "uint256[]"
        }
      ],
      "stateMutability": "view",
      "type": "function",
      "constant": true
    }
  ],
  "bytecode": "0x608060405234801561001057600080fd5b5033600160006101000a81548173ffffffffffffffffffffffffffffffffffffffff021916908373ffffffffffffffffffffffffffffffffffffffff16021790555060008060018160018154018082558091505003906000526020600020906007020190506000816005018190555060008160020181905550600160008054905061009b91906100ea565b816000018190555060006002819055505061011e565b6000819050919050565b7f4e487b7100000000000000000000000000000000000000000000000000000000600052601160045260246000fd5b60006100f5826100b1565b9150610100836100b1565b925082821015610113576101126100bb565b5b828203905092915050565b611563806200012e6000396000f3fe60806040526004361061007b5760003560e01c80636fda8cc61161004e5780636fda8cc6146101305780637365870b1461015b578063a2fb11751461018b578063aa15efc8146101c85761007b565b8063203e7060146100805780633902a0cc146100ab5780634129b2c9146100d757806351cff8d914610114575b600080fd5b34801561008c57600080fd5b506100956101f3565b6040516100a29190610c41565b60405180910390f35b3480156100b757600080fd5b506100c06101ff565b6040516100ce929190610e0a565b60405180910390f35b3480156100e357600080fd5b506100fe60048036038101906100f99190610e72565b6102fa565b60405161010b9190610eae565b60405180910390f35b61012e60048036038101906101299190610f07565b61037d565b005b34801561013c57600080fd5b5061014561051f565b6040516101529190610c41565b60405180910390f35b61017560048036038101906101709190610e72565b610532565b6040516101829190610c41565b60405180910390f35b34801561019757600080fd5b506101b260048036038101906101ad9190610e72565b61084f565b6040516101bf9190610eae565b60405180910390f35b3480156101d457600080fd5b506101dd610882565b6040516101ea9190610f34565b60405180910390f35b60008080549050905090565b60608061020a61097c565b60030161021561097c565b6004018180548060200260200160405190810160405280929190818152602001828054801561029957602002820191906000526020600020905b8160009054906101000a900473ffffffffffffffffffffffffffffffffffffffff1673ffffffffffffffffffffffffffffffffffffffff168152602001906001019080831161024f575b50505050509150808054806020026020016040519081016040528092919081815260200182805480156102eb57602002820191906000526020600020905b8154815260200190600101908083116102d7575b50505050509050915091509091565b600080805490508211610342576040517f08c379a000000000000000000000000000000000000000000000000000000000815260040161033990610fb3565b60405180910390fd5b6003600083815260200190815260200160002060009054906101000a900473ffffffffffffffffffffffffffffffffffffffff169050919050565b8073ffffffffffffffffffffffffffffffffffffffff163373ffffffffffffffffffffffffffffffffffffffff16146103eb576040517f08c379a00000000000000000000000000000000000000000000000000000000081526004016103e290611045565b60405180910390fd5b60008173ffffffffffffffffffffffffffffffffffffffff16600460003373ffffffffffffffffffffffffffffffffffffffff1673ffffffffffffffffffffffffffffffffffffffff1681526020019081526020016000205460405161045090611096565b60006040518083038185875af1925050503d806000811461048d576040519150601f19603f3d011682016040523d82523d6000602084013e610492565b606091505b50509050806104d6576040517f08c379a00000000000000000000000000000000000000000000000000000000081526004016104cd906110f7565b60405180910390fd5b6000600460003373ffffffffffffffffffffffffffffffffffffffff1673ffffffffffffffffffffffffffffffffffffffff168152602001908152602001600020819055505050565b600061052961097c565b60020154905090565b6000600160009054906101000a900473ffffffffffffffffffffffffffffffffffffffff1673ffffffffffffffffffffffffffffffffffffffff163373ffffffffffffffffffffffffffffffffffffffff1614156105c5576040517f08c379a00000000000000000000000000000000000000000000000000000000081526004016105bc90611163565b60405180910390fd5b600a821115610609576040517f08c379a0000000000000000000000000000000000000000000000000000000008152600401610600906111f5565b60405180910390fd5b6000821161064c576040517f08c379a0000000000000000000000000000000000000000000000000000000008152600401610643906111f5565b60405180910390fd5b6207a120341015610692576040517f08c379a000000000000000000000000000000000000000000000000000000000815260040161068990611261565b60405180910390fd5b600061069c61097c565b905060008160060160003373ffffffffffffffffffffffffffffffffffffffff1673ffffffffffffffffffffffffffffffffffffffff1681526020019081526020016000205414610722576040517f08c379a0000000000000000000000000000000000000000000000000000000008152600401610719906112f3565b60405180910390fd5b828160060160003373ffffffffffffffffffffffffffffffffffffffff1673ffffffffffffffffffffffffffffffffffffffff1681526020019081526020016000208190555080600301339080600181540180825580915050600190039060005260206000200160009091909190916101000a81548173ffffffffffffffffffffffffffffffffffffffff021916908373ffffffffffffffffffffffffffffffffffffffff160217905550806004013490806001815401808255809150506001900390600052602060002001600090919091909150553481600201546108089190611342565b8160020181905550600181600501546108219190611342565b8160050181905550600581600301805490501415610842576108416109b5565b5b8060020154915050919050565b60036020528060005260406000206000915054906101000a900473ffffffffffffffffffffffffffffffffffffffff1681565b6060600060025467ffffffffffffffff8111156108a2576108a1611398565b5b6040519080825280602002602001820160405280156108d05781602001602082028036833780820191505090505b50905060005b600254811015610974576003600082815260200190815260200160002060009054906101000a900473ffffffffffffffffffffffffffffffffffffffff16828281518110610927576109266113c7565b5b602002602001019073ffffffffffffffffffffffffffffffffffffffff16908173ffffffffffffffffffffffffffffffffffffffff1681525050808061096c906113f6565b9150506108d6565b508091505090565b6000806001600080549050610991919061143f565b815481106109a2576109a16113c7565b5b9060005260206000209060070201905090565b60006109bf61097c565b9050806003016000815481106109d8576109d76113c7565b5b9060005260206000200160009054906101000a900473ffffffffffffffffffffffffffffffffffffffff16600360008080549050815260200190815260200160002060006101000a81548173ffffffffffffffffffffffffffffffffffffffff021916908373ffffffffffffffffffffffffffffffffffffffff16021790555060006103b66103e88360020154610a6f91906114a2565b610a7991906114d3565b905080600460003373ffffffffffffffffffffffffffffffffffffffff1673ffffffffffffffffffffffffffffffffffffffff1681526020019081526020016000206000828254610aca9190611342565b92505081905550610ad961097c565b600301600081548110610aef57610aee6113c7565b5b9060005260206000200160009054906101000a900473ffffffffffffffffffffffffffffffffffffffff1660036000610b2661097c565b60000154815260200190815260200160002060006101000a81548173ffffffffffffffffffffffffffffffffffffffff021916908373ffffffffffffffffffffffffffffffffffffffff160217905550610b7e610b9c565b600160026000828254610b919190611342565b925050819055505050565b600080600181600181540180825580915050039060005260206000209060070201905060008054905081600001819055506000816002018190555060008160010160006101000a81548173ffffffffffffffffffffffffffffffffffffffff021916908373ffffffffffffffffffffffffffffffffffffffff1602179055506000816005018190555050565b6000819050919050565b610c3b81610c28565b82525050565b6000602082019050610c566000830184610c32565b92915050565b600081519050919050565b600082825260208201905092915050565b6000819050602082019050919050565b600073ffffffffffffffffffffffffffffffffffffffff82169050919050565b6000610cb382610c88565b9050919050565b610cc381610ca8565b82525050565b6000610cd58383610cba565b60208301905092915050565b6000602082019050919050565b6000610cf982610c5c565b610d038185610c67565b9350610d0e83610c78565b8060005b83811015610d3f578151610d268882610cc9565b9750610d3183610ce1565b925050600181019050610d12565b5085935050505092915050565b600081519050919050565b600082825260208201905092915050565b6000819050602082019050919050565b610d8181610c28565b82525050565b6000610d938383610d78565b60208301905092915050565b6000602082019050919050565b6000610db782610d4c565b610dc18185610d57565b9350610dcc83610d68565b8060005b83811015610dfd578151610de48882610d87565b9750610def83610d9f565b925050600181019050610dd0565b5085935050505092915050565b60006040820190508181036000830152610e248185610cee565b90508181036020830152610e388184610dac565b90509392505050565b600080fd5b610e4f81610c28565b8114610e5a57600080fd5b50565b600081359050610e6c81610e46565b92915050565b600060208284031215610e8857610e87610e41565b5b6000610e9684828501610e5d565b91505092915050565b610ea881610ca8565b82525050565b6000602082019050610ec36000830184610e9f565b92915050565b6000610ed482610c88565b9050919050565b610ee481610ec9565b8114610eef57600080fd5b50565b600081359050610f0181610edb565b92915050565b600060208284031215610f1d57610f1c610e41565b5b6000610f2b84828501610ef2565b91505092915050565b60006020820190508181036000830152610f4e8184610cee565b905092915050565b600082825260208201905092915050565b7f6e6f706500000000000000000000000000000000000000000000000000000000600082015250565b6000610f9d600483610f56565b9150610fa882610f67565b602082019050919050565b60006020820190508181036000830152610fcc81610f90565b9050919050565b7f6d7573742077697468647261772066726f6d20796f7572206f776e206163636f60008201527f756e740000000000000000000000000000000000000000000000000000000000602082015250565b600061102f602383610f56565b915061103a82610fd3565b604082019050919050565b6000602082019050818103600083015261105e81611022565b9050919050565b600081905092915050565b50565b6000611080600083611065565b915061108b82611070565b600082019050919050565b60006110a182611073565b9150819050919050565b7f6661696c656420746f2077697468647261770000000000000000000000000000600082015250565b60006110e1601283610f56565b91506110ec826110ab565b602082019050919050565b60006020820190508181036000830152611110816110d4565b9050919050565b7f636f6e7472616374206f776e65722063616e6e6f742062657400000000000000600082015250565b600061114d601983610f56565b915061115882611117565b602082019050919050565b6000602082019050818103600083015261117c81611140565b9050919050565b7f62657473206d757374206265206265747765656e203120616e6420313020696e60008201527f636c75736976656c790000000000000000000000000000000000000000000000602082015250565b60006111df602983610f56565b91506111ea82611183565b604082019050919050565b6000602082019050818103600083015261120e816111d2565b9050919050565b7f6d696e696d756d20626574206973203530302057454900000000000000000000600082015250565b600061124b601683610f56565b915061125682611215565b602082019050919050565b6000602082019050818103600083015261127a8161123e565b9050919050565b7f796f75206861766520616c726561647920706c6163656420612062657420746860008201527f69732067616d6500000000000000000000000000000000000000000000000000602082015250565b60006112dd602783610f56565b91506112e882611281565b604082019050919050565b6000602082019050818103600083015261130c816112d0565b9050919050565b7f4e487b7100000000000000000000000000000000000000000000000000000000600052601160045260246000fd5b600061134d82610c28565b915061135883610c28565b9250827fffffffffffffffffffffffffffffffffffffffffffffffffffffffffffffffff0382111561138d5761138c611313565b5b828201905092915050565b7f4e487b7100000000000000000000000000000000000000000000000000000000600052604160045260246000fd5b7f4e487b7100000000000000000000000000000000000000000000000000000000600052603260045260246000fd5b600061140182610c28565b91507fffffffffffffffffffffffffffffffffffffffffffffffffffffffffffffffff82141561143457611433611313565b5b600182019050919050565b600061144a82610c28565b915061145583610c28565b92508282101561146857611467611313565b5b828203905092915050565b7f4e487b7100000000000000000000000000000000000000000000000000000000600052601260045260246000fd5b60006114ad82610c28565b91506114b883610c28565b9250826114c8576114c7611473565b5b828204905092915050565b60006114de82610c28565b91506114e983610c28565b9250817fffffffffffffffffffffffffffffffffffffffffffffffffffffffffffffffff048311821515161561152257611521611313565b5b82820290509291505056fea2646970667358221220a7eb9169195fa6d6791da1058c464641df59ee7e271d539a88e10f89f7dd86ef64736f6c634300080b0033",
  "immutableReferences": {},
  "source": "// SPDX-License-Identifier: GPL-3.0\r\n\r\npragma solidity >=0.7.0 <0.9.0;\r\n\r\ncontract Roulette {\r\n\r\n    struct Game {\r\n        uint id;\r\n        address winner;\r\n        uint pot;\r\n        address[] ppl;\r\n        uint[] bets;\r\n        uint pplCounter;\r\n        mapping(address => uint) userPickedNums;\r\n    }\r\n\r\n    Game[] games;\r\n    address owner;\r\n    uint gameCount;\r\n    mapping(uint => address) public winners;\r\n    mapping(address => uint) accountsBal;\r\n\r\n    function currentGame() private view returns (Game storage) {\r\n        return games[games.length - 1];\r\n    }\r\n\r\n    modifier notOwner {\r\n        require(msg.sender != owner, \"contract owner cannot bet\");\r\n        _;\r\n    }\r\n\r\n    constructor() {\r\n        owner = msg.sender;\r\n        Game storage s = games.push();\r\n        s.pplCounter = 0;\r\n        s.pot = 0;\r\n        s.id = games.length - 1;\r\n        gameCount = 0;\r\n    }\r\n\r\n    function freshGame() private {\r\n        Game storage s = games.push();\r\n        s.id = games.length;\r\n        s.pot = 0;\r\n        s.winner = address(0);\r\n        s.pplCounter = 0;\r\n    }\r\n\r\n    function createNewGame() private {\r\n        Game storage g = currentGame();\r\n        winners[games.length] = g.ppl[0]; //modify for actual random winner\r\n        uint takehome = g.pot / 1000 * 950;\r\n        accountsBal[msg.sender] += takehome;\r\n        winners[currentGame().id] = currentGame().ppl[0];\r\n        // pay winner etc\r\n        freshGame();\r\n        gameCount += 1;\r\n    }\r\n\r\n\r\n    function withdraw(address payable _to) public payable {\r\n        require(msg.sender == _to, \"must withdraw from your own account\");\r\n        (bool sent, ) = _to.call{value: accountsBal[msg.sender]}(\"\");\r\n        require(sent, \"failed to withdraw\");\r\n        accountsBal[msg.sender] = 0;\r\n    }\r\n\r\n    function bet(uint i) public payable notOwner returns (uint) {\r\n        require(i <= 10, \"bets must be between 1 and 10 inclusively\");\r\n        require(i > 0, \"bets must be between 1 and 10 inclusively\");\r\n        require(msg.value >= 500000, \"minimum bet is 500 WEI\");\r\n        Game storage curr = currentGame();\r\n        require(curr.userPickedNums[msg.sender] == 0, \"you have already placed a bet this game\");\r\n        curr.userPickedNums[msg.sender] = i;\r\n        curr.ppl.push(msg.sender);\r\n        curr.bets.push(msg.value);\r\n        curr.pot = curr.pot + msg.value;\r\n        curr.pplCounter = curr.pplCounter + 1;\r\n        if (curr.ppl.length == 5) {\r\n            createNewGame();\r\n        }\r\n        return curr.pot;\r\n    }\r\n\r\n    function getGamesLen() public view returns (uint) {\r\n        return games.length;\r\n    }\r\n\r\n    function getCurrentGamePot() public view returns (uint) {\r\n        return currentGame().pot;\r\n    }\r\n    \r\n    function getWinner(uint i) public view returns (address) {\r\n        require(i > games.length, \"nope\");\r\n        return winners[i];\r\n    }\r\n\r\n    function getHistory() public view returns (address[] memory) {\r\n        address[] memory a = new address[](gameCount);\r\n        for(uint i = 0; i < gameCount; i++) {\r\n            a[i] = winners[i];\r\n        }\r\n        return a;\r\n    }\r\n\r\n    function getCurrentGameBetters() public view returns(address[] memory, uint[] memory) {\r\n        return (currentGame().ppl, currentGame().bets);\r\n    }\r\n}",
  "sourcePath": "C:\\Users\\auw\\Projects\\web3_app\\contract\\contracts\\Roulette.sol",
  "compiler": {
    "name": "solc",
    "version": "0.8.11+commit.d7f03943.Emscripten.clang"
  },
  "schemaVersion": "3.4.4",
  "updatedAt": "2022-08-07T14:17:03.681Z",
  "networkType": "ethereum",
  "devdoc": {
    "kind": "dev",
    "methods": {},
    "version": 1
  },
  "userdoc": {
    "kind": "user",
    "methods": {},
    "version": 1
  }
}